:020000040000FA
:100000000000FA2908308316850083128501083024
:1000100083169F008312AB01AC01AD01AE01AF01AD
:10002000B0010530FF0000307D2483122C082B0422
:10003000031D4A28B1018312851D20288312B10AAD
:1000400083123108013A031D4A28831205108510D6
:100050000511051285166430FF0000307D248312DF
:10006000B1018312851E36288312B10A8312310929
:10007000B100310C03183E2883128512031C42285C
:10008000831285166430FF0000307D248312AF0197
:10009000B0011528831230082F04031D52280130A7
:1000A000AB00AC018312851D59288312B101B20146
:1000B0005D2801308312B100B2018312B30131080F
:1000C000013A031D67283208003A0319B30A831264
:1000D000330803196C293008803E803E031D7228C6
:1000E0000A302F0203186C298312B101B201B40146
:1000F000B50183123208803E803E031D81280A30FC
:1001000031020318A32883123408423EB60000309F
:10011000B70035080318350FB70736088312840077
:100120008313831237188317FF3083128000840AE9
:10013000FF30800002308312B4070318B50AB10AF9
:100140000319B20A79288312B101B201B401B501D1
:1001500083123208803E803E031DB02801303102F8
:1001600003181C29A8248312B7007F08B600B80121
:10017000B901BA01BB01BC01BD0183123B08803E3D
:10018000803E031DC5280A303A020318F628831260
:100190003C08423EBE000030BF003D0803183D0F42
:1001A000BF073E0883128400831383123F1883170E
:1001B000831200088312C0008312840A000883128D
:1001C000C10036084006031DED2837084106031D0F
:1001D000ED280130B800B901F62802308312BC07BF
:1001E0000318BD0ABA0A0319BB0ABD2883123908CD
:1001F0003804031DA8283408423EB8000030B90076
:1002000035080318350FB9073808831284008313A3
:10021000831239188317360883128000840A8312E8
:1002200037088312800002308312B4070318B50A1E
:10023000B10A0319B20AA828831242088312B10036
:10024000831243088312B2003108FF003208D02421
:100250008312B2007F08B100831242088312B400F7
:10026000831243088312B5003408FF003508BD240B
:100270008312B5007F08B4000839031D0130B600B1
:10028000AD00AE0134080439031D01308312D600DD
:10029000831234080239031D01308312D700831200
:1002A00034088312D800831231080839031D013045
:1002B0008312D900831231080439031D01308312DF
:1002C000DA00831231080239031D01308312DB008A
:1002D000831231088312DC00831233080319732957
:1002E000AF0A0319B00A8312851683125C0C031837
:1002F0007B2983120510031C7F29831205148312A6
:100300005B0C0318852983128510031C892983122D
:10031000851483125A0C03188F2983120511031CAC
:100320009329831205158312590C031899298312F6
:100330000512031C9D29831205166430FF0000304E
:100340007D24F1248312B1018312851EA929831211
:10035000B10A83123109B100310C0318B12983129B
:100360008512031CB529831285168312580C0318B5
:10037000BB2983120510031CBF29831205148312A5
:10038000570C0318C52983128510031CC929831231
:1003900085148312560C0318CF2983120511031CF0
:1003A000D3298312051583122D08B100310C0318CF
:1003B000DB2983120512031CDF2983120516643022
:1003C000FF0000307D24F12483123008803E803EFF
:1003D000031DEC290A302F02031C152883122B0859
:1003E000FF002C08FC228312AC007F08AB00F12434
:1003F00015280800E330FE000430FF0080300000C4
:1004000000005C240000000083120000DE007F0872
:10041000DD00E530DF000430E000831200005D08FD
:10042000E1005E08E200FF30DD07031CDE03620826
:1004300061040319922A04305F07E100E201E20D32
:100440006008E2076108FE006208FF0080300000DB
:1004500000005C240000000083120000E4007F081C
:10046000E3005F08FE006008FF008030000000002D
:100470005C240000000083120000E600E2007F0818
:10048000E100E50002305F07E100E201E20D6008F3
:10049000E2076108FE006208FF00803000000000F3
:1004A0005C240000000083120000E200E8007F08E6
:1004B000E700E100831200006308E7006408E80039
:1004C000FF30E307031CE4036808670403198B2A61
:1004D0006508FE006608FF00803000000000492427
:1004E0000000000083120000E7006108831203137C
:1004F0008400831383120000621883176708831235
:100500000313800083120000E50A0319E60AE10ADA
:100510000319E20A5A2A063083120000DF07031883
:10052000E00A0D2A000000000228080083160000DF
:10053000A1007F08A0007E08A3007D08A20003148C
:10054000A11F0310A401A40D24080319AF2A200938
:10055000A5002109A600A50A0319A60AB52A831633
:1005600000002008A5002108A60083160000250829
:10057000A0002608A1000314A31F0310A501A50DC8
:1005800025080319CB2A2209A6002309A700A60AD9
:100590000319A70AD12A831600002208A6002308FF
:1005A000A700831600002608A200FD002708A3006C
:1005B000FE002008FF002108000000000F240000BA
:1005C000000083160000A1007F08A0002508A406F3
:1005D00024080319F62A2009A4002109A200A40A6C
:1005E0000319A20A2408FF002208FB2A8316000030
:1005F0002008FF00210808008312A801A901F124A6
:100600008312851205148510051105166430FF004C
:1006100000307D248312AA018312851E112B8312C0
:10062000AA0A83122A09AA002A0C0318192B83127A
:100630008512031C1D2B831285166430FF000030C9
:100640007D24F1248312AA018312851E292B831293
:10065000AA0A83122A09AA002A0C0318312B831232
:100660008512031C352B831285166430FF00003081
:100670007D248312AA018312851E402B8312AA0AAD
:1006800083122A09AA002A0C0318482B8312851208
:10069000031C4C2B831285166430FF0000307D2430
:1006A0008312A80A0319A90A2908803E803E031D67
:1006B0005B2B03302802031CFF2A0030FF000030B0
:1006C000080083120000EA007F08E9007E08EC00C1
:1006D0007D08EB000314EA1F0310ED01ED0D6D081A
:1006E00003197A2B6909EE006A09EF00EE0A031973
:1006F000EF0A802B831200006908EE006A08EF0001
:10070000831200006E08E9006F08EA000314EC1F72
:100710000310031C932B6B09EE006C09EF00EE0A2B
:100720000319EF0A992B831200006B08EE006C0886
:10073000EF00831200006E08EB00FD006F08EC0074
:10074000FE006908FF006A0800000000C2230000E4
:10075000000083120000EA007F08E9006D08031919
:10076000BC2B6909ED006A09EB00ED0A0319EB0ADD
:100770006D08FF006B08C12B831200006908FF00A1
:100780006A08080083160000B1007F08B0007E08E8
:10079000B3007D08B200B401B50183160000330830
:1007A0008039031D0130B6003608031DEE2B0310FF
:1007B000B20DB30D33083102031DE02B32083002B5
:1007C0000318E82B031083160000B30CB20CEE2BB9
:1007D00083160000B50A3508B400CD2B831600003F
:1007E00033083102031DF62B32083002031C002CA3
:1007F000831600003208B0023308031C330FB10225
:10080000031083160000B30CB20C3408B500B40317
:100810003508031DEE2B3008FF0031080800831651
:100820000000A9007F08A8007E08AB007D08AA0090
:10083000AC01AD011030AE008316000029088039EC
:10084000031D0130AF000310A80DA90D0310AC0D5E
:10085000AD0D2F08031D2C142B082D02031D322C67
:100860002A082C02031C3D2C831600002A08AC0227
:100870002B08031C2B0FAD022814831600002E0337
:10088000AF00AE002F08031D1C2C2808FF0029080C
:100890000800003A0319502C803A0319572C0034F1
:1008A0007E08840083137F188317000808007F08E0
:1008B0008A007E0882000800003A0319642C803AFE
:1008C00003196E2CFF0100347E08840083137F1807
:1008D00083170008FF00840A0008080000000000D9
:1008E0005724FD00FE0FFF03FF0A000000005724FD
:1008F000FC007D08FF007C0808008312A1007F082F
:10090000A000A201A301831221082302031D8A2C47
:10091000200822020318A72CFB308312A400043005
:10092000A500FF3083122407A600FF30A70025088A
:100930000318250FA7072608A4002708A5002708E5
:100940002604031D912CA20A0319A30A832C080074
:10095000EF308316B707BE300318BF30B8076430D6
:10096000FD000030FE003708FF003808C223831264
:10097000A1007F08FF00210808008312A1007F0862
:10098000A0000A30FD000030FE002008FF00210812
:1009900096228312A1007F08A000FF002108080012
:1009A0008312A1007F08A0000A30FD000030FE0085
:1009B0002008FF00210861238312A1007F08A00006
:1009C000FF002108080002340034F7340434B7343F
:1009D000003402340034F9340434B93400340134BE
:1009E000003483120510851005110512080000342B
:0409F000003400349B
:02400E00D73F9A
:00000001FF
